{
  "_format": "hh-sol-artifact-1",
  "contractName": "Marketplace",
  "sourceName": "contracts/Marketplace.sol",
  "abi": [
    {
      "inputs": [],
      "stateMutability": "nonpayable",
      "type": "constructor"
    },
    {
      "anonymous": false,
      "inputs": [
        {
          "indexed": true,
          "internalType": "address",
          "name": "nft",
          "type": "address"
        },
        {
          "indexed": false,
          "internalType": "uint256",
          "name": "tokenId",
          "type": "uint256"
        },
        {
          "indexed": true,
          "internalType": "address",
          "name": "seller",
          "type": "address"
        },
        {
          "indexed": true,
          "internalType": "address",
          "name": "buyer",
          "type": "address"
        }
      ],
      "name": "Bought",
      "type": "event"
    },
    {
      "anonymous": false,
      "inputs": [
        {
          "indexed": true,
          "internalType": "address",
          "name": "nft",
          "type": "address"
        },
        {
          "indexed": false,
          "internalType": "uint256",
          "name": "tokenId",
          "type": "uint256"
        },
        {
          "indexed": true,
          "internalType": "address",
          "name": "seller",
          "type": "address"
        }
      ],
      "name": "Offered",
      "type": "event"
    },
    {
      "inputs": [],
      "name": "_owner",
      "outputs": [
        {
          "internalType": "address",
          "name": "",
          "type": "address"
        }
      ],
      "stateMutability": "view",
      "type": "function"
    },
    {
      "inputs": [],
      "name": "itemCount",
      "outputs": [
        {
          "internalType": "uint256",
          "name": "",
          "type": "uint256"
        }
      ],
      "stateMutability": "view",
      "type": "function"
    },
    {
      "inputs": [
        {
          "internalType": "uint256",
          "name": "",
          "type": "uint256"
        }
      ],
      "name": "items",
      "outputs": [
        {
          "internalType": "uint256",
          "name": "itemCount",
          "type": "uint256"
        },
        {
          "internalType": "contract IERC721",
          "name": "nft",
          "type": "address"
        },
        {
          "internalType": "uint256",
          "name": "tokenId",
          "type": "uint256"
        },
        {
          "internalType": "address payable",
          "name": "seller",
          "type": "address"
        },
        {
          "internalType": "bool",
          "name": "sold",
          "type": "bool"
        }
      ],
      "stateMutability": "view",
      "type": "function"
    },
    {
      "inputs": [
        {
          "internalType": "contract IERC721",
          "name": "_nft",
          "type": "address"
        },
        {
          "internalType": "uint256",
          "name": "_tokenId",
          "type": "uint256"
        }
      ],
      "name": "makeItem",
      "outputs": [],
      "stateMutability": "nonpayable",
      "type": "function"
    },
    {
      "inputs": [
        {
          "internalType": "uint256",
          "name": "_tokenId",
          "type": "uint256"
        }
      ],
      "name": "purchaseItem",
      "outputs": [],
      "stateMutability": "payable",
      "type": "function"
    }
  ],
  "bytecode": "0x6080604052600060015534801561001557600080fd5b50600160008190555033600260006101000a81548173ffffffffffffffffffffffffffffffffffffffff021916908373ffffffffffffffffffffffffffffffffffffffff160217905550610c568061006e6000396000f3fe60806040526004361061004a5760003560e01c80631a1beae21461004f5780636bfb0d0114610078578063b2bdfa7b146100a3578063bfb231d2146100ce578063d38ea5bf1461010f575b600080fd5b34801561005b57600080fd5b50610076600480360381019061007191906107b9565b61012b565b005b34801561008457600080fd5b5061008d6103a1565b60405161009a91906109c7565b60405180910390f35b3480156100af57600080fd5b506100b86103a7565b6040516100c591906108f5565b60405180910390f35b3480156100da57600080fd5b506100f560048036038101906100f091906107f5565b6103cd565b6040516101069594939291906109e2565b60405180910390f35b610129600480360381019061012491906107f5565b610450565b005b60026000541415610171576040517f08c379a0000000000000000000000000000000000000000000000000000000008152600401610168906109a7565b60405180910390fd5b60026000819055506001600081548092919061018c90610ad6565b91905055508173ffffffffffffffffffffffffffffffffffffffff166323b872dd3330846040518463ffffffff1660e01b81526004016101ce93929190610910565b600060405180830381600087803b1580156101e857600080fd5b505af11580156101fc573d6000803e3d6000fd5b505050506040518060a0016040528060015481526020018373ffffffffffffffffffffffffffffffffffffffff1681526020018281526020013373ffffffffffffffffffffffffffffffffffffffff16815260200160001515815250600360008381526020019081526020016000206000820151816000015560208201518160010160006101000a81548173ffffffffffffffffffffffffffffffffffffffff021916908373ffffffffffffffffffffffffffffffffffffffff1602179055506040820151816002015560608201518160030160006101000a81548173ffffffffffffffffffffffffffffffffffffffff021916908373ffffffffffffffffffffffffffffffffffffffff16021790555060808201518160030160146101000a81548160ff0219169083151502179055509050503373ffffffffffffffffffffffffffffffffffffffff168273ffffffffffffffffffffffffffffffffffffffff167f08ef40df9ffeaa6a0cf8889c3bdc49150c3ea80337cd80533d6d439e8a48c5958360405161038d91906109c7565b60405180910390a360016000819055505050565b60015481565b600260009054906101000a900473ffffffffffffffffffffffffffffffffffffffff1681565b60036020528060005260406000206000915090508060000154908060010160009054906101000a900473ffffffffffffffffffffffffffffffffffffffff16908060020154908060030160009054906101000a900473ffffffffffffffffffffffffffffffffffffffff16908060030160149054906101000a900460ff16905085565b60026000541415610496576040517f08c379a000000000000000000000000000000000000000000000000000000000815260040161048d906109a7565b60405180910390fd5b600260008190555060006003600083815260200190815260200160002090506000816000015414156104fd576040517f08c379a00000000000000000000000000000000000000000000000000000000081526004016104f490610987565b60405180910390fd5b8060030160149054906101000a900460ff161561054f576040517f08c379a000000000000000000000000000000000000000000000000000000000815260040161054690610947565b60405180910390fd5b641f05b90e00341015610597576040517f08c379a000000000000000000000000000000000000000000000000000000000815260040161058e90610967565b60405180910390fd5b8060030160009054906101000a900473ffffffffffffffffffffffffffffffffffffffff1673ffffffffffffffffffffffffffffffffffffffff166108fc641f05b90e009081150290604051600060405180830381858888f19350505050158015610606573d6000803e3d6000fd5b5060018160030160146101000a81548160ff0219169083151502179055508060010160009054906101000a900473ffffffffffffffffffffffffffffffffffffffff1673ffffffffffffffffffffffffffffffffffffffff166323b872dd303384600201546040518463ffffffff1660e01b815260040161068993929190610910565b600060405180830381600087803b1580156106a357600080fd5b505af11580156106b7573d6000803e3d6000fd5b505050503373ffffffffffffffffffffffffffffffffffffffff168160030160009054906101000a900473ffffffffffffffffffffffffffffffffffffffff1673ffffffffffffffffffffffffffffffffffffffff168260010160009054906101000a900473ffffffffffffffffffffffffffffffffffffffff1673ffffffffffffffffffffffffffffffffffffffff167fb57c3e8f5c69466a926940bc355e6b584466de843aee8e6e3276c5823fead86c846002015460405161077b91906109c7565b60405180910390a450600160008190555050565b60008135905061079e81610bf2565b92915050565b6000813590506107b381610c09565b92915050565b600080604083850312156107cc57600080fd5b60006107da8582860161078f565b92505060206107eb858286016107a4565b9150509250929050565b60006020828403121561080757600080fd5b6000610815848285016107a4565b91505092915050565b61082781610a58565b82525050565b61083681610a46565b82525050565b61084581610a6a565b82525050565b61085481610ab2565b82525050565b6000610867601183610a35565b915061087282610b4e565b602082019050919050565b600061088a601283610a35565b915061089582610b77565b602082019050919050565b60006108ad601283610a35565b91506108b882610ba0565b602082019050919050565b60006108d0601f83610a35565b91506108db82610bc9565b602082019050919050565b6108ef81610aa8565b82525050565b600060208201905061090a600083018461082d565b92915050565b6000606082019050610925600083018661082d565b610932602083018561082d565b61093f60408301846108e6565b949350505050565b600060208201905081810360008301526109608161085a565b9050919050565b600060208201905081810360008301526109808161087d565b9050919050565b600060208201905081810360008301526109a0816108a0565b9050919050565b600060208201905081810360008301526109c0816108c3565b9050919050565b60006020820190506109dc60008301846108e6565b92915050565b600060a0820190506109f760008301886108e6565b610a04602083018761084b565b610a1160408301866108e6565b610a1e606083018561081e565b610a2b608083018461083c565b9695505050505050565b600082825260208201905092915050565b6000610a5182610a88565b9050919050565b6000610a6382610a88565b9050919050565b60008115159050919050565b6000610a8182610a46565b9050919050565b600073ffffffffffffffffffffffffffffffffffffffff82169050919050565b6000819050919050565b6000610abd82610ac4565b9050919050565b6000610acf82610a88565b9050919050565b6000610ae182610aa8565b91507fffffffffffffffffffffffffffffffffffffffffffffffffffffffffffffffff821415610b1457610b13610b1f565b5b600182019050919050565b7f4e487b7100000000000000000000000000000000000000000000000000000000600052601160045260246000fd5b7f6974656d20616c726561647920736f6c64000000000000000000000000000000600082015250565b7f696e73756666696369656e742076616c75650000000000000000000000000000600082015250565b7f6974656d20646f65736e27742065786973740000000000000000000000000000600082015250565b7f5265656e7472616e637947756172643a207265656e7472616e742063616c6c00600082015250565b610bfb81610a76565b8114610c0657600080fd5b50565b610c1281610aa8565b8114610c1d57600080fd5b5056fea26469706673582212208f7b2feff5f8b33919dcbc6e3d5b25e29969a19d28143b566ab75ae42eafd35264736f6c63430008040033",
  "linkReferences": {},
  "deployedLinkReferences": {}
}