{
  "_format": "hh-sol-artifact-1",
  "contractName": "Marketplace",
  "sourceName": "contracts/Marketplace.sol",
  "abi": [
    {
      "inputs": [],
      "stateMutability": "nonpayable",
      "type": "constructor"
    },
    {
      "anonymous": false,
      "inputs": [
        {
          "indexed": true,
          "internalType": "address",
          "name": "nft",
          "type": "address"
        },
        {
          "indexed": false,
          "internalType": "uint256",
          "name": "tokenId",
          "type": "uint256"
        },
        {
          "indexed": true,
          "internalType": "address",
          "name": "seller",
          "type": "address"
        },
        {
          "indexed": true,
          "internalType": "address",
          "name": "buyer",
          "type": "address"
        }
      ],
      "name": "Bought",
      "type": "event"
    },
    {
      "anonymous": false,
      "inputs": [
        {
          "indexed": true,
          "internalType": "address",
          "name": "nft",
          "type": "address"
        },
        {
          "indexed": false,
          "internalType": "uint256",
          "name": "tokenId",
          "type": "uint256"
        },
        {
          "indexed": true,
          "internalType": "address",
          "name": "seller",
          "type": "address"
        }
      ],
      "name": "Offered",
      "type": "event"
    },
    {
      "inputs": [],
      "name": "_owner",
      "outputs": [
        {
          "internalType": "address",
          "name": "",
          "type": "address"
        }
      ],
      "stateMutability": "view",
      "type": "function"
    },
    {
      "inputs": [
        {
          "internalType": "address",
          "name": "_to",
          "type": "address"
        }
      ],
      "name": "donation",
      "outputs": [],
      "stateMutability": "payable",
      "type": "function"
    },
    {
      "inputs": [],
      "name": "itemCount",
      "outputs": [
        {
          "internalType": "uint256",
          "name": "",
          "type": "uint256"
        }
      ],
      "stateMutability": "view",
      "type": "function"
    },
    {
      "inputs": [
        {
          "internalType": "uint256",
          "name": "",
          "type": "uint256"
        }
      ],
      "name": "items",
      "outputs": [
        {
          "internalType": "uint256",
          "name": "itemCount",
          "type": "uint256"
        },
        {
          "internalType": "contract IERC721",
          "name": "nft",
          "type": "address"
        },
        {
          "internalType": "uint256",
          "name": "tokenId",
          "type": "uint256"
        },
        {
          "internalType": "address payable",
          "name": "seller",
          "type": "address"
        },
        {
          "internalType": "bool",
          "name": "sold",
          "type": "bool"
        }
      ],
      "stateMutability": "view",
      "type": "function"
    },
    {
      "inputs": [
        {
          "internalType": "contract IERC721",
          "name": "_nft",
          "type": "address"
        },
        {
          "internalType": "uint256",
          "name": "_tokenId",
          "type": "uint256"
        }
      ],
      "name": "makeItem",
      "outputs": [],
      "stateMutability": "nonpayable",
      "type": "function"
    },
    {
      "inputs": [
        {
          "internalType": "uint256",
          "name": "_tokenId",
          "type": "uint256"
        }
      ],
      "name": "purchaseItem",
      "outputs": [],
      "stateMutability": "payable",
      "type": "function"
    }
  ],
  "bytecode": "0x6080604052600060015534801561001557600080fd5b50600160008190555033600260006101000a81548173ffffffffffffffffffffffffffffffffffffffff021916908373ffffffffffffffffffffffffffffffffffffffff160217905550610dd18061006e6000396000f3fe6080604052600436106100555760003560e01c80631a1beae21461005a5780636bfb0d0114610083578063b2bdfa7b146100ae578063bfb231d2146100d9578063d38ea5bf1461011a578063f457ee5a14610136575b600080fd5b34801561006657600080fd5b50610081600480360381019061007c91906108b1565b610152565b005b34801561008f57600080fd5b506100986103c8565b6040516100a59190610b02565b60405180910390f35b3480156100ba57600080fd5b506100c36103ce565b6040516100d09190610a10565b60405180910390f35b3480156100e557600080fd5b5061010060048036038101906100fb91906108ed565b6103f4565b604051610111959493929190610b1d565b60405180910390f35b610134600480360381019061012f91906108ed565b610477565b005b610150600480360381019061014b9190610888565b6107b6565b005b60026000541415610198576040517f08c379a000000000000000000000000000000000000000000000000000000000815260040161018f90610ae2565b60405180910390fd5b6002600081905550600160008154809291906101b390610c11565b91905055508173ffffffffffffffffffffffffffffffffffffffff166323b872dd3330846040518463ffffffff1660e01b81526004016101f593929190610a2b565b600060405180830381600087803b15801561020f57600080fd5b505af1158015610223573d6000803e3d6000fd5b505050506040518060a0016040528060015481526020018373ffffffffffffffffffffffffffffffffffffffff1681526020018281526020013373ffffffffffffffffffffffffffffffffffffffff16815260200160001515815250600360008381526020019081526020016000206000820151816000015560208201518160010160006101000a81548173ffffffffffffffffffffffffffffffffffffffff021916908373ffffffffffffffffffffffffffffffffffffffff1602179055506040820151816002015560608201518160030160006101000a81548173ffffffffffffffffffffffffffffffffffffffff021916908373ffffffffffffffffffffffffffffffffffffffff16021790555060808201518160030160146101000a81548160ff0219169083151502179055509050503373ffffffffffffffffffffffffffffffffffffffff168273ffffffffffffffffffffffffffffffffffffffff167f08ef40df9ffeaa6a0cf8889c3bdc49150c3ea80337cd80533d6d439e8a48c595836040516103b49190610b02565b60405180910390a360016000819055505050565b60015481565b600260009054906101000a900473ffffffffffffffffffffffffffffffffffffffff1681565b60036020528060005260406000206000915090508060000154908060010160009054906101000a900473ffffffffffffffffffffffffffffffffffffffff16908060020154908060030160009054906101000a900473ffffffffffffffffffffffffffffffffffffffff16908060030160149054906101000a900460ff16905085565b600260005414156104bd576040517f08c379a00000000000000000000000000000000000000000000000000000000081526004016104b490610ae2565b60405180910390fd5b60026000819055506000600360008381526020019081526020016000209050600081600001541415610524576040517f08c379a000000000000000000000000000000000000000000000000000000000815260040161051b90610aa2565b60405180910390fd5b8060030160149054906101000a900460ff1615610576576040517f08c379a000000000000000000000000000000000000000000000000000000000815260040161056d90610a62565b60405180910390fd5b641f05b90e003410156105be576040517f08c379a00000000000000000000000000000000000000000000000000000000081526004016105b590610a82565b60405180910390fd5b8060030160009054906101000a900473ffffffffffffffffffffffffffffffffffffffff1673ffffffffffffffffffffffffffffffffffffffff166108fc641f05b90e009081150290604051600060405180830381858888f1935050505015801561062d573d6000803e3d6000fd5b5060018160030160146101000a81548160ff0219169083151502179055508060010160009054906101000a900473ffffffffffffffffffffffffffffffffffffffff1673ffffffffffffffffffffffffffffffffffffffff166323b872dd303384600201546040518463ffffffff1660e01b81526004016106b093929190610a2b565b600060405180830381600087803b1580156106ca57600080fd5b505af11580156106de573d6000803e3d6000fd5b505050503373ffffffffffffffffffffffffffffffffffffffff168160030160009054906101000a900473ffffffffffffffffffffffffffffffffffffffff1673ffffffffffffffffffffffffffffffffffffffff168260010160009054906101000a900473ffffffffffffffffffffffffffffffffffffffff1673ffffffffffffffffffffffffffffffffffffffff167fb57c3e8f5c69466a926940bc355e6b584466de843aee8e6e3276c5823fead86c84600201546040516107a29190610b02565b60405180910390a450600160008190555050565b600034116107f9576040517f08c379a00000000000000000000000000000000000000000000000000000000081526004016107f090610ac2565b60405180910390fd5b60008190508073ffffffffffffffffffffffffffffffffffffffff166108fc349081150290604051600060405180830381858888f19350505050158015610844573d6000803e3d6000fd5b505050565b60008135905061085881610d56565b92915050565b60008135905061086d81610d6d565b92915050565b60008135905061088281610d84565b92915050565b60006020828403121561089a57600080fd5b60006108a884828501610849565b91505092915050565b600080604083850312156108c457600080fd5b60006108d28582860161085e565b92505060206108e385828601610873565b9150509250929050565b6000602082840312156108ff57600080fd5b600061090d84828501610873565b91505092915050565b61091f81610b93565b82525050565b61092e81610b81565b82525050565b61093d81610ba5565b82525050565b61094c81610bed565b82525050565b600061095f601183610b70565b915061096a82610c89565b602082019050919050565b6000610982601283610b70565b915061098d82610cb2565b602082019050919050565b60006109a5601283610b70565b91506109b082610cdb565b602082019050919050565b60006109c8601b83610b70565b91506109d382610d04565b602082019050919050565b60006109eb601f83610b70565b91506109f682610d2d565b602082019050919050565b610a0a81610be3565b82525050565b6000602082019050610a256000830184610925565b92915050565b6000606082019050610a406000830186610925565b610a4d6020830185610925565b610a5a6040830184610a01565b949350505050565b60006020820190508181036000830152610a7b81610952565b9050919050565b60006020820190508181036000830152610a9b81610975565b9050919050565b60006020820190508181036000830152610abb81610998565b9050919050565b60006020820190508181036000830152610adb816109bb565b9050919050565b60006020820190508181036000830152610afb816109de565b9050919050565b6000602082019050610b176000830184610a01565b92915050565b600060a082019050610b326000830188610a01565b610b3f6020830187610943565b610b4c6040830186610a01565b610b596060830185610916565b610b666080830184610934565b9695505050505050565b600082825260208201905092915050565b6000610b8c82610bc3565b9050919050565b6000610b9e82610bc3565b9050919050565b60008115159050919050565b6000610bbc82610b81565b9050919050565b600073ffffffffffffffffffffffffffffffffffffffff82169050919050565b6000819050919050565b6000610bf882610bff565b9050919050565b6000610c0a82610bc3565b9050919050565b6000610c1c82610be3565b91507fffffffffffffffffffffffffffffffffffffffffffffffffffffffffffffffff821415610c4f57610c4e610c5a565b5b600182019050919050565b7f4e487b7100000000000000000000000000000000000000000000000000000000600052601160045260246000fd5b7f6974656d20616c726561647920736f6c64000000000000000000000000000000600082015250565b7f696e73756666696369656e742076616c75650000000000000000000000000000600082015250565b7f6974656d20646f65736e27742065786973740000000000000000000000000000600082015250565b7f706c6561736520656e74657220612076616c696420616d6f756e740000000000600082015250565b7f5265656e7472616e637947756172643a207265656e7472616e742063616c6c00600082015250565b610d5f81610b81565b8114610d6a57600080fd5b50565b610d7681610bb1565b8114610d8157600080fd5b50565b610d8d81610be3565b8114610d9857600080fd5b5056fea264697066735822122037367829ce0432ffe1138102ae61f3bf08f775a12ae8a769e3c65490dda2c9bf64736f6c63430008040033",
  "linkReferences": {},
  "deployedLinkReferences": {}
}