{
  "_format": "hh-sol-artifact-1",
  "contractName": "NFT",
  "sourceName": "contracts/NFT.sol",
  "abi": [
    {
      "inputs": [
        {
          "internalType": "string",
          "name": "name",
          "type": "string"
        },
        {
          "internalType": "string",
          "name": "symbol",
          "type": "string"
        }
      ],
      "stateMutability": "nonpayable",
      "type": "constructor"
    },
    {
      "anonymous": false,
      "inputs": [
        {
          "indexed": true,
          "internalType": "address",
          "name": "owner",
          "type": "address"
        },
        {
          "indexed": true,
          "internalType": "address",
          "name": "approved",
          "type": "address"
        },
        {
          "indexed": true,
          "internalType": "uint256",
          "name": "tokenId",
          "type": "uint256"
        }
      ],
      "name": "Approval",
      "type": "event"
    },
    {
      "anonymous": false,
      "inputs": [
        {
          "indexed": true,
          "internalType": "address",
          "name": "owner",
          "type": "address"
        },
        {
          "indexed": true,
          "internalType": "address",
          "name": "operator",
          "type": "address"
        },
        {
          "indexed": false,
          "internalType": "bool",
          "name": "approved",
          "type": "bool"
        }
      ],
      "name": "ApprovalForAll",
      "type": "event"
    },
    {
      "anonymous": false,
      "inputs": [
        {
          "indexed": true,
          "internalType": "address",
          "name": "from",
          "type": "address"
        },
        {
          "indexed": true,
          "internalType": "address",
          "name": "to",
          "type": "address"
        },
        {
          "indexed": true,
          "internalType": "uint256",
          "name": "tokenId",
          "type": "uint256"
        }
      ],
      "name": "Transfer",
      "type": "event"
    },
    {
      "anonymous": false,
      "inputs": [
        {
          "indexed": true,
          "internalType": "uint256",
          "name": "tokenId",
          "type": "uint256"
        },
        {
          "indexed": true,
          "internalType": "string",
          "name": "uri",
          "type": "string"
        }
      ],
      "name": "minted",
      "type": "event"
    },
    {
      "inputs": [
        {
          "internalType": "address",
          "name": "to",
          "type": "address"
        },
        {
          "internalType": "uint256",
          "name": "tokenId",
          "type": "uint256"
        }
      ],
      "name": "approve",
      "outputs": [],
      "stateMutability": "nonpayable",
      "type": "function"
    },
    {
      "inputs": [
        {
          "internalType": "address",
          "name": "owner",
          "type": "address"
        }
      ],
      "name": "balanceOf",
      "outputs": [
        {
          "internalType": "uint256",
          "name": "",
          "type": "uint256"
        }
      ],
      "stateMutability": "view",
      "type": "function"
    },
    {
      "inputs": [
        {
          "internalType": "uint256",
          "name": "tokenId",
          "type": "uint256"
        }
      ],
      "name": "getApproved",
      "outputs": [
        {
          "internalType": "address",
          "name": "",
          "type": "address"
        }
      ],
      "stateMutability": "view",
      "type": "function"
    },
    {
      "inputs": [
        {
          "internalType": "address",
          "name": "owner",
          "type": "address"
        },
        {
          "internalType": "address",
          "name": "operator",
          "type": "address"
        }
      ],
      "name": "isApprovedForAll",
      "outputs": [
        {
          "internalType": "bool",
          "name": "",
          "type": "bool"
        }
      ],
      "stateMutability": "view",
      "type": "function"
    },
    {
      "inputs": [
        {
          "internalType": "string",
          "name": "_tokenURI",
          "type": "string"
        }
      ],
      "name": "mint",
      "outputs": [],
      "stateMutability": "nonpayable",
      "type": "function"
    },
    {
      "inputs": [],
      "name": "name",
      "outputs": [
        {
          "internalType": "string",
          "name": "",
          "type": "string"
        }
      ],
      "stateMutability": "view",
      "type": "function"
    },
    {
      "inputs": [],
      "name": "organisation",
      "outputs": [
        {
          "internalType": "address",
          "name": "",
          "type": "address"
        }
      ],
      "stateMutability": "view",
      "type": "function"
    },
    {
      "inputs": [
        {
          "internalType": "uint256",
          "name": "tokenId",
          "type": "uint256"
        }
      ],
      "name": "ownerOf",
      "outputs": [
        {
          "internalType": "address",
          "name": "",
          "type": "address"
        }
      ],
      "stateMutability": "view",
      "type": "function"
    },
    {
      "inputs": [
        {
          "internalType": "address",
          "name": "from",
          "type": "address"
        },
        {
          "internalType": "address",
          "name": "to",
          "type": "address"
        },
        {
          "internalType": "uint256",
          "name": "tokenId",
          "type": "uint256"
        }
      ],
      "name": "safeTransferFrom",
      "outputs": [],
      "stateMutability": "nonpayable",
      "type": "function"
    },
    {
      "inputs": [
        {
          "internalType": "address",
          "name": "from",
          "type": "address"
        },
        {
          "internalType": "address",
          "name": "to",
          "type": "address"
        },
        {
          "internalType": "uint256",
          "name": "tokenId",
          "type": "uint256"
        },
        {
          "internalType": "bytes",
          "name": "data",
          "type": "bytes"
        }
      ],
      "name": "safeTransferFrom",
      "outputs": [],
      "stateMutability": "nonpayable",
      "type": "function"
    },
    {
      "inputs": [
        {
          "internalType": "address",
          "name": "operator",
          "type": "address"
        },
        {
          "internalType": "bool",
          "name": "approved",
          "type": "bool"
        }
      ],
      "name": "setApprovalForAll",
      "outputs": [],
      "stateMutability": "nonpayable",
      "type": "function"
    },
    {
      "inputs": [
        {
          "internalType": "bytes4",
          "name": "interfaceId",
          "type": "bytes4"
        }
      ],
      "name": "supportsInterface",
      "outputs": [
        {
          "internalType": "bool",
          "name": "",
          "type": "bool"
        }
      ],
      "stateMutability": "view",
      "type": "function"
    },
    {
      "inputs": [],
      "name": "symbol",
      "outputs": [
        {
          "internalType": "string",
          "name": "",
          "type": "string"
        }
      ],
      "stateMutability": "view",
      "type": "function"
    },
    {
      "inputs": [],
      "name": "tokenCount",
      "outputs": [
        {
          "internalType": "uint256",
          "name": "",
          "type": "uint256"
        }
      ],
      "stateMutability": "view",
      "type": "function"
    },
    {
      "inputs": [
        {
          "internalType": "uint256",
          "name": "tokenId",
          "type": "uint256"
        }
      ],
      "name": "tokenURI",
      "outputs": [
        {
          "internalType": "string",
          "name": "",
          "type": "string"
        }
      ],
      "stateMutability": "view",
      "type": "function"
    },
    {
      "inputs": [
        {
          "internalType": "address",
          "name": "from",
          "type": "address"
        },
        {
          "internalType": "address",
          "name": "to",
          "type": "address"
        },
        {
          "internalType": "uint256",
          "name": "tokenId",
          "type": "uint256"
        }
      ],
      "name": "transferFrom",
      "outputs": [],
      "stateMutability": "nonpayable",
      "type": "function"
    }
  ],
  "bytecode": "0x608060405260006007553480156200001657600080fd5b5060405162002d4438038062002d4483398181016040528101906200003c9190620001dd565b8181816000908051906020019062000056929190620000bb565b5080600190805190602001906200006f929190620000bb565b50505033600860006101000a81548173ffffffffffffffffffffffffffffffffffffffff021916908373ffffffffffffffffffffffffffffffffffffffff1602179055505050620003c0565b828054620000c990620002e5565b90600052602060002090601f016020900481019282620000ed576000855562000139565b82601f106200010857805160ff191683800117855562000139565b8280016001018555821562000139579182015b82811115620001385782518255916020019190600101906200011b565b5b5090506200014891906200014c565b5090565b5b80821115620001675760008160009055506001016200014d565b5090565b6000620001826200017c8462000279565b62000250565b9050828152602081018484840111156200019b57600080fd5b620001a8848285620002af565b509392505050565b600082601f830112620001c257600080fd5b8151620001d48482602086016200016b565b91505092915050565b60008060408385031215620001f157600080fd5b600083015167ffffffffffffffff8111156200020c57600080fd5b6200021a85828601620001b0565b925050602083015167ffffffffffffffff8111156200023857600080fd5b6200024685828601620001b0565b9150509250929050565b60006200025c6200026f565b90506200026a82826200031b565b919050565b6000604051905090565b600067ffffffffffffffff82111562000297576200029662000380565b5b620002a282620003af565b9050602081019050919050565b60005b83811015620002cf578082015181840152602081019050620002b2565b83811115620002df576000848401525b50505050565b60006002820490506001821680620002fe57607f821691505b6020821081141562000315576200031462000351565b5b50919050565b6200032682620003af565b810181811067ffffffffffffffff8211171562000348576200034762000380565b5b80604052505050565b7f4e487b7100000000000000000000000000000000000000000000000000000000600052602260045260246000fd5b7f4e487b7100000000000000000000000000000000000000000000000000000000600052604160045260246000fd5b6000601f19601f8301169050919050565b61297480620003d06000396000f3fe608060405234801561001057600080fd5b50600436106101005760003560e01c806370a0823111610097578063b88d4fde11610066578063b88d4fde146102ad578063c87b56dd146102c9578063d85d3d27146102f9578063e985e9c51461031557610100565b806370a082311461022557806395d89b41146102555780639f181b5e14610273578063a22cb4651461029157610100565b806323b872dd116100d357806323b872dd1461019f57806342842e0e146101bb578063438b12d1146101d75780636352211e146101f557610100565b806301ffc9a71461010557806306fdde0314610135578063081812fc14610153578063095ea7b314610183575b600080fd5b61011f600480360381019061011a9190611c37565b610345565b60405161012c9190612009565b60405180910390f35b61013d610427565b60405161014a9190612024565b60405180910390f35b61016d60048036038101906101689190611cca565b6104b9565b60405161017a9190611fa2565b60405180910390f35b61019d60048036038101906101989190611bfb565b6104ff565b005b6101b960048036038101906101b49190611af5565b610617565b005b6101d560048036038101906101d09190611af5565b610677565b005b6101df610697565b6040516101ec9190611fa2565b60405180910390f35b61020f600480360381019061020a9190611cca565b6106bd565b60405161021c9190611fa2565b60405180910390f35b61023f600480360381019061023a9190611a90565b61076f565b60405161024c91906121c6565b60405180910390f35b61025d610827565b60405161026a9190612024565b60405180910390f35b61027b6108b9565b60405161028891906121c6565b60405180910390f35b6102ab60048036038101906102a69190611bbf565b6108bf565b005b6102c760048036038101906102c29190611b44565b6108d5565b005b6102e360048036038101906102de9190611cca565b610937565b6040516102f09190612024565b60405180910390f35b610313600480360381019061030e9190611c89565b610a4a565b005b61032f600480360381019061032a9190611ab9565b610ac2565b60405161033c9190612009565b60405180910390f35b60007f80ac58cd000000000000000000000000000000000000000000000000000000007bffffffffffffffffffffffffffffffffffffffffffffffffffffffff1916827bffffffffffffffffffffffffffffffffffffffffffffffffffffffff1916148061041057507f5b5e139f000000000000000000000000000000000000000000000000000000007bffffffffffffffffffffffffffffffffffffffffffffffffffffffff1916827bffffffffffffffffffffffffffffffffffffffffffffffffffffffff1916145b80610420575061041f82610b56565b5b9050919050565b6060600080546104369061241c565b80601f01602080910402602001604051908101604052809291908181526020018280546104629061241c565b80156104af5780601f10610484576101008083540402835291602001916104af565b820191906000526020600020905b81548152906001019060200180831161049257829003601f168201915b5050505050905090565b60006104c482610bc0565b6004600083815260200190815260200160002060009054906101000a900473ffffffffffffffffffffffffffffffffffffffff169050919050565b600061050a826106bd565b90508073ffffffffffffffffffffffffffffffffffffffff168373ffffffffffffffffffffffffffffffffffffffff16141561057b576040517f08c379a000000000000000000000000000000000000000000000000000000000815260040161057290612186565b60405180910390fd5b8073ffffffffffffffffffffffffffffffffffffffff1661059a610c0b565b73ffffffffffffffffffffffffffffffffffffffff1614806105c957506105c8816105c3610c0b565b610ac2565b5b610608576040517f08c379a00000000000000000000000000000000000000000000000000000000081526004016105ff90612126565b60405180910390fd5b6106128383610c13565b505050565b610628610622610c0b565b82610ccc565b610667576040517f08c379a000000000000000000000000000000000000000000000000000000000815260040161065e906121a6565b60405180910390fd5b610672838383610d61565b505050565b610692838383604051806020016040528060008152506108d5565b505050565b600860009054906101000a900473ffffffffffffffffffffffffffffffffffffffff1681565b6000806002600084815260200190815260200160002060009054906101000a900473ffffffffffffffffffffffffffffffffffffffff169050600073ffffffffffffffffffffffffffffffffffffffff168173ffffffffffffffffffffffffffffffffffffffff161415610766576040517f08c379a000000000000000000000000000000000000000000000000000000000815260040161075d90612166565b60405180910390fd5b80915050919050565b60008073ffffffffffffffffffffffffffffffffffffffff168273ffffffffffffffffffffffffffffffffffffffff1614156107e0576040517f08c379a00000000000000000000000000000000000000000000000000000000081526004016107d7906120e6565b60405180910390fd5b600360008373ffffffffffffffffffffffffffffffffffffffff1673ffffffffffffffffffffffffffffffffffffffff168152602001908152602001600020549050919050565b6060600180546108369061241c565b80601f01602080910402602001604051908101604052809291908181526020018280546108629061241c565b80156108af5780601f10610884576101008083540402835291602001916108af565b820191906000526020600020905b81548152906001019060200180831161089257829003601f168201915b5050505050905090565b60075481565b6108d16108ca610c0b565b8383610fc8565b5050565b6108e66108e0610c0b565b83610ccc565b610925576040517f08c379a000000000000000000000000000000000000000000000000000000000815260040161091c906121a6565b60405180910390fd5b61093184848484611135565b50505050565b606061094282610bc0565b60006006600084815260200190815260200160002080546109629061241c565b80601f016020809104026020016040519081016040528092919081815260200182805461098e9061241c565b80156109db5780601f106109b0576101008083540402835291602001916109db565b820191906000526020600020905b8154815290600101906020018083116109be57829003601f168201915b5050505050905060006109ec611191565b9050600081511415610a02578192505050610a45565b600082511115610a37578082604051602001610a1f929190611f7e565b60405160208183030381529060405292505050610a45565b610a40846111a8565b925050505b919050565b60076000815480929190610a5d9061247f565b9190505550610a6e33600754611210565b610a7a6007548261122e565b80604051610a889190611f67565b60405180910390206007547faf2e757b9971840eeffcbdff2672715b03bd62e156cbf50a5dad76aa484cdc1c60405160405180910390a350565b6000600560008473ffffffffffffffffffffffffffffffffffffffff1673ffffffffffffffffffffffffffffffffffffffff16815260200190815260200160002060008373ffffffffffffffffffffffffffffffffffffffff1673ffffffffffffffffffffffffffffffffffffffff16815260200190815260200160002060009054906101000a900460ff16905092915050565b60007f01ffc9a7000000000000000000000000000000000000000000000000000000007bffffffffffffffffffffffffffffffffffffffffffffffffffffffff1916827bffffffffffffffffffffffffffffffffffffffffffffffffffffffff1916149050919050565b610bc9816112a2565b610c08576040517f08c379a0000000000000000000000000000000000000000000000000000000008152600401610bff90612166565b60405180910390fd5b50565b600033905090565b816004600083815260200190815260200160002060006101000a81548173ffffffffffffffffffffffffffffffffffffffff021916908373ffffffffffffffffffffffffffffffffffffffff160217905550808273ffffffffffffffffffffffffffffffffffffffff16610c86836106bd565b73ffffffffffffffffffffffffffffffffffffffff167f8c5be1e5ebec7d5bd14f71427d1e84f3dd0314c0f7b2291e5b200ac8c7c3b92560405160405180910390a45050565b600080610cd8836106bd565b90508073ffffffffffffffffffffffffffffffffffffffff168473ffffffffffffffffffffffffffffffffffffffff161480610d1a5750610d198185610ac2565b5b80610d5857508373ffffffffffffffffffffffffffffffffffffffff16610d40846104b9565b73ffffffffffffffffffffffffffffffffffffffff16145b91505092915050565b8273ffffffffffffffffffffffffffffffffffffffff16610d81826106bd565b73ffffffffffffffffffffffffffffffffffffffff1614610dd7576040517f08c379a0000000000000000000000000000000000000000000000000000000008152600401610dce90612066565b60405180910390fd5b600073ffffffffffffffffffffffffffffffffffffffff168273ffffffffffffffffffffffffffffffffffffffff161415610e47576040517f08c379a0000000000000000000000000000000000000000000000000000000008152600401610e3e906120a6565b60405180910390fd5b610e5283838361130e565b610e5d600082610c13565b6001600360008573ffffffffffffffffffffffffffffffffffffffff1673ffffffffffffffffffffffffffffffffffffffff1681526020019081526020016000206000828254610ead9190612332565b925050819055506001600360008473ffffffffffffffffffffffffffffffffffffffff1673ffffffffffffffffffffffffffffffffffffffff1681526020019081526020016000206000828254610f0491906122ab565b92505081905550816002600083815260200190815260200160002060006101000a81548173ffffffffffffffffffffffffffffffffffffffff021916908373ffffffffffffffffffffffffffffffffffffffff160217905550808273ffffffffffffffffffffffffffffffffffffffff168473ffffffffffffffffffffffffffffffffffffffff167fddf252ad1be2c89b69c2b068fc378daa952ba7f163c4a11628f55a4df523b3ef60405160405180910390a4610fc3838383611313565b505050565b8173ffffffffffffffffffffffffffffffffffffffff168373ffffffffffffffffffffffffffffffffffffffff161415611037576040517f08c379a000000000000000000000000000000000000000000000000000000000815260040161102e906120c6565b60405180910390fd5b80600560008573ffffffffffffffffffffffffffffffffffffffff1673ffffffffffffffffffffffffffffffffffffffff16815260200190815260200160002060008473ffffffffffffffffffffffffffffffffffffffff1673ffffffffffffffffffffffffffffffffffffffff16815260200190815260200160002060006101000a81548160ff0219169083151502179055508173ffffffffffffffffffffffffffffffffffffffff168373ffffffffffffffffffffffffffffffffffffffff167f17307eab39ab6107e8899845ad3d59bd9653f200f220920489ca2b5937696c31836040516111289190612009565b60405180910390a3505050565b611140848484610d61565b61114c84848484611318565b61118b576040517f08c379a000000000000000000000000000000000000000000000000000000000815260040161118290612046565b60405180910390fd5b50505050565b606060405180602001604052806000815250905090565b60606111b382610bc0565b60006111bd611191565b905060008151116111dd5760405180602001604052806000815250611208565b806111e7846114af565b6040516020016111f8929190611f7e565b6040516020818303038152906040525b915050919050565b61122a82826040518060200160405280600081525061165c565b5050565b611237826112a2565b611276576040517f08c379a000000000000000000000000000000000000000000000000000000000815260040161126d90612106565b60405180910390fd5b8060066000848152602001908152602001600020908051906020019061129d9291906118b4565b505050565b60008073ffffffffffffffffffffffffffffffffffffffff166002600084815260200190815260200160002060009054906101000a900473ffffffffffffffffffffffffffffffffffffffff1673ffffffffffffffffffffffffffffffffffffffff1614159050919050565b505050565b505050565b60006113398473ffffffffffffffffffffffffffffffffffffffff166116b7565b156114a2578373ffffffffffffffffffffffffffffffffffffffff1663150b7a02611362610c0b565b8786866040518563ffffffff1660e01b81526004016113849493929190611fbd565b602060405180830381600087803b15801561139e57600080fd5b505af19250505080156113cf57506040513d601f19601f820116820180604052508101906113cc9190611c60565b60015b611452573d80600081146113ff576040519150601f19603f3d011682016040523d82523d6000602084013e611404565b606091505b5060008151141561144a576040517f08c379a000000000000000000000000000000000000000000000000000000000815260040161144190612046565b60405180910390fd5b805181602001fd5b63150b7a0260e01b7bffffffffffffffffffffffffffffffffffffffffffffffffffffffff1916817bffffffffffffffffffffffffffffffffffffffffffffffffffffffff1916149150506114a7565b600190505b949350505050565b606060008214156114f7576040518060400160405280600181526020017f30000000000000000000000000000000000000000000000000000000000000008152509050611657565b600082905060005b600082146115295780806115129061247f565b915050600a826115229190612301565b91506114ff565b60008167ffffffffffffffff81111561156b577f4e487b7100000000000000000000000000000000000000000000000000000000600052604160045260246000fd5b6040519080825280601f01601f19166020018201604052801561159d5781602001600182028036833780820191505090505b5090505b60008514611650576001826115b69190612332565b9150600a856115c591906124c8565b60306115d191906122ab565b60f81b81838151811061160d577f4e487b7100000000000000000000000000000000000000000000000000000000600052603260045260246000fd5b60200101907effffffffffffffffffffffffffffffffffffffffffffffffffffffffffffff1916908160001a905350600a856116499190612301565b94506115a1565b8093505050505b919050565b61166683836116da565b6116736000848484611318565b6116b2576040517f08c379a00000000000000000000000000000000000000000000000000000000081526004016116a990612046565b60405180910390fd5b505050565b6000808273ffffffffffffffffffffffffffffffffffffffff163b119050919050565b600073ffffffffffffffffffffffffffffffffffffffff168273ffffffffffffffffffffffffffffffffffffffff16141561174a576040517f08c379a000000000000000000000000000000000000000000000000000000000815260040161174190612146565b60405180910390fd5b611753816112a2565b15611793576040517f08c379a000000000000000000000000000000000000000000000000000000000815260040161178a90612086565b60405180910390fd5b61179f6000838361130e565b6001600360008473ffffffffffffffffffffffffffffffffffffffff1673ffffffffffffffffffffffffffffffffffffffff16815260200190815260200160002060008282546117ef91906122ab565b92505081905550816002600083815260200190815260200160002060006101000a81548173ffffffffffffffffffffffffffffffffffffffff021916908373ffffffffffffffffffffffffffffffffffffffff160217905550808273ffffffffffffffffffffffffffffffffffffffff16600073ffffffffffffffffffffffffffffffffffffffff167fddf252ad1be2c89b69c2b068fc378daa952ba7f163c4a11628f55a4df523b3ef60405160405180910390a46118b060008383611313565b5050565b8280546118c09061241c565b90600052602060002090601f0160209004810192826118e25760008555611929565b82601f106118fb57805160ff1916838001178555611929565b82800160010185558215611929579182015b8281111561192857825182559160200191906001019061190d565b5b509050611936919061193a565b5090565b5b8082111561195357600081600090555060010161193b565b5090565b600061196a61196584612206565b6121e1565b90508281526020810184848401111561198257600080fd5b61198d8482856123da565b509392505050565b60006119a86119a384612237565b6121e1565b9050828152602081018484840111156119c057600080fd5b6119cb8482856123da565b509392505050565b6000813590506119e2816128e2565b92915050565b6000813590506119f7816128f9565b92915050565b600081359050611a0c81612910565b92915050565b600081519050611a2181612910565b92915050565b600082601f830112611a3857600080fd5b8135611a48848260208601611957565b91505092915050565b600082601f830112611a6257600080fd5b8135611a72848260208601611995565b91505092915050565b600081359050611a8a81612927565b92915050565b600060208284031215611aa257600080fd5b6000611ab0848285016119d3565b91505092915050565b60008060408385031215611acc57600080fd5b6000611ada858286016119d3565b9250506020611aeb858286016119d3565b9150509250929050565b600080600060608486031215611b0a57600080fd5b6000611b18868287016119d3565b9350506020611b29868287016119d3565b9250506040611b3a86828701611a7b565b9150509250925092565b60008060008060808587031215611b5a57600080fd5b6000611b68878288016119d3565b9450506020611b79878288016119d3565b9350506040611b8a87828801611a7b565b925050606085013567ffffffffffffffff811115611ba757600080fd5b611bb387828801611a27565b91505092959194509250565b60008060408385031215611bd257600080fd5b6000611be0858286016119d3565b9250506020611bf1858286016119e8565b9150509250929050565b60008060408385031215611c0e57600080fd5b6000611c1c858286016119d3565b9250506020611c2d85828601611a7b565b9150509250929050565b600060208284031215611c4957600080fd5b6000611c57848285016119fd565b91505092915050565b600060208284031215611c7257600080fd5b6000611c8084828501611a12565b91505092915050565b600060208284031215611c9b57600080fd5b600082013567ffffffffffffffff811115611cb557600080fd5b611cc184828501611a51565b91505092915050565b600060208284031215611cdc57600080fd5b6000611cea84828501611a7b565b91505092915050565b611cfc81612366565b82525050565b611d0b81612378565b82525050565b6000611d1c82612268565b611d26818561227e565b9350611d368185602086016123e9565b611d3f816125b5565b840191505092915050565b6000611d5582612273565b611d5f818561228f565b9350611d6f8185602086016123e9565b611d78816125b5565b840191505092915050565b6000611d8e82612273565b611d9881856122a0565b9350611da88185602086016123e9565b80840191505092915050565b6000611dc160328361228f565b9150611dcc826125c6565b604082019050919050565b6000611de460258361228f565b9150611def82612615565b604082019050919050565b6000611e07601c8361228f565b9150611e1282612664565b602082019050919050565b6000611e2a60248361228f565b9150611e358261268d565b604082019050919050565b6000611e4d60198361228f565b9150611e58826126dc565b602082019050919050565b6000611e7060298361228f565b9150611e7b82612705565b604082019050919050565b6000611e93602e8361228f565b9150611e9e82612754565b604082019050919050565b6000611eb6603e8361228f565b9150611ec1826127a3565b604082019050919050565b6000611ed960208361228f565b9150611ee4826127f2565b602082019050919050565b6000611efc60188361228f565b9150611f078261281b565b602082019050919050565b6000611f1f60218361228f565b9150611f2a82612844565b604082019050919050565b6000611f42602e8361228f565b9150611f4d82612893565b604082019050919050565b611f61816123d0565b82525050565b6000611f738284611d83565b915081905092915050565b6000611f8a8285611d83565b9150611f968284611d83565b91508190509392505050565b6000602082019050611fb76000830184611cf3565b92915050565b6000608082019050611fd26000830187611cf3565b611fdf6020830186611cf3565b611fec6040830185611f58565b8181036060830152611ffe8184611d11565b905095945050505050565b600060208201905061201e6000830184611d02565b92915050565b6000602082019050818103600083015261203e8184611d4a565b905092915050565b6000602082019050818103600083015261205f81611db4565b9050919050565b6000602082019050818103600083015261207f81611dd7565b9050919050565b6000602082019050818103600083015261209f81611dfa565b9050919050565b600060208201905081810360008301526120bf81611e1d565b9050919050565b600060208201905081810360008301526120df81611e40565b9050919050565b600060208201905081810360008301526120ff81611e63565b9050919050565b6000602082019050818103600083015261211f81611e86565b9050919050565b6000602082019050818103600083015261213f81611ea9565b9050919050565b6000602082019050818103600083015261215f81611ecc565b9050919050565b6000602082019050818103600083015261217f81611eef565b9050919050565b6000602082019050818103600083015261219f81611f12565b9050919050565b600060208201905081810360008301526121bf81611f35565b9050919050565b60006020820190506121db6000830184611f58565b92915050565b60006121eb6121fc565b90506121f7828261244e565b919050565b6000604051905090565b600067ffffffffffffffff82111561222157612220612586565b5b61222a826125b5565b9050602081019050919050565b600067ffffffffffffffff82111561225257612251612586565b5b61225b826125b5565b9050602081019050919050565b600081519050919050565b600081519050919050565b600082825260208201905092915050565b600082825260208201905092915050565b600081905092915050565b60006122b6826123d0565b91506122c1836123d0565b9250827fffffffffffffffffffffffffffffffffffffffffffffffffffffffffffffffff038211156122f6576122f56124f9565b5b828201905092915050565b600061230c826123d0565b9150612317836123d0565b92508261232757612326612528565b5b828204905092915050565b600061233d826123d0565b9150612348836123d0565b92508282101561235b5761235a6124f9565b5b828203905092915050565b6000612371826123b0565b9050919050565b60008115159050919050565b60007fffffffff0000000000000000000000000000000000000000000000000000000082169050919050565b600073ffffffffffffffffffffffffffffffffffffffff82169050919050565b6000819050919050565b82818337600083830152505050565b60005b838110156124075780820151818401526020810190506123ec565b83811115612416576000848401525b50505050565b6000600282049050600182168061243457607f821691505b6020821081141561244857612447612557565b5b50919050565b612457826125b5565b810181811067ffffffffffffffff8211171561247657612475612586565b5b80604052505050565b600061248a826123d0565b91507fffffffffffffffffffffffffffffffffffffffffffffffffffffffffffffffff8214156124bd576124bc6124f9565b5b600182019050919050565b60006124d3826123d0565b91506124de836123d0565b9250826124ee576124ed612528565b5b828206905092915050565b7f4e487b7100000000000000000000000000000000000000000000000000000000600052601160045260246000fd5b7f4e487b7100000000000000000000000000000000000000000000000000000000600052601260045260246000fd5b7f4e487b7100000000000000000000000000000000000000000000000000000000600052602260045260246000fd5b7f4e487b7100000000000000000000000000000000000000000000000000000000600052604160045260246000fd5b6000601f19601f8301169050919050565b7f4552433732313a207472616e7366657220746f206e6f6e20455243373231526560008201527f63656976657220696d706c656d656e7465720000000000000000000000000000602082015250565b7f4552433732313a207472616e736665722066726f6d20696e636f72726563742060008201527f6f776e6572000000000000000000000000000000000000000000000000000000602082015250565b7f4552433732313a20746f6b656e20616c7265616479206d696e74656400000000600082015250565b7f4552433732313a207472616e7366657220746f20746865207a65726f2061646460008201527f7265737300000000000000000000000000000000000000000000000000000000602082015250565b7f4552433732313a20617070726f766520746f2063616c6c657200000000000000600082015250565b7f4552433732313a2061646472657373207a65726f206973206e6f74206120766160008201527f6c6964206f776e65720000000000000000000000000000000000000000000000602082015250565b7f45524337323155524953746f726167653a2055524920736574206f66206e6f6e60008201527f6578697374656e7420746f6b656e000000000000000000000000000000000000602082015250565b7f4552433732313a20617070726f76652063616c6c6572206973206e6f7420746f60008201527f6b656e206f776e6572206e6f7220617070726f76656420666f7220616c6c0000602082015250565b7f4552433732313a206d696e7420746f20746865207a65726f2061646472657373600082015250565b7f4552433732313a20696e76616c696420746f6b656e2049440000000000000000600082015250565b7f4552433732313a20617070726f76616c20746f2063757272656e74206f776e6560008201527f7200000000000000000000000000000000000000000000000000000000000000602082015250565b7f4552433732313a2063616c6c6572206973206e6f7420746f6b656e206f776e6560008201527f72206e6f7220617070726f766564000000000000000000000000000000000000602082015250565b6128eb81612366565b81146128f657600080fd5b50565b61290281612378565b811461290d57600080fd5b50565b61291981612384565b811461292457600080fd5b50565b612930816123d0565b811461293b57600080fd5b5056fea26469706673582212207f56a4c87e254e1f98156f6447fde4f66f299efb55a636e65c422ab19d7f72ac64736f6c63430008040033",
  "linkReferences": {},
  "deployedLinkReferences": {}
}