{
  "_format": "hh-sol-artifact-1",
  "contractName": "Marketplace",
  "sourceName": "contracts/Marketplace.sol",
  "abi": [
    {
      "inputs": [],
      "stateMutability": "nonpayable",
      "type": "constructor"
    },
    {
      "anonymous": false,
      "inputs": [
        {
          "indexed": true,
          "internalType": "address",
          "name": "nft",
          "type": "address"
        },
        {
          "indexed": false,
          "internalType": "uint256",
          "name": "tokenId",
          "type": "uint256"
        },
        {
          "indexed": true,
          "internalType": "address",
          "name": "seller",
          "type": "address"
        },
        {
          "indexed": true,
          "internalType": "address",
          "name": "buyer",
          "type": "address"
        }
      ],
      "name": "Bought",
      "type": "event"
    },
    {
      "anonymous": false,
      "inputs": [
        {
          "indexed": true,
          "internalType": "uint256",
          "name": "itemCount",
          "type": "uint256"
        }
      ],
      "name": "NumOfItems",
      "type": "event"
    },
    {
      "anonymous": false,
      "inputs": [
        {
          "indexed": true,
          "internalType": "address",
          "name": "nft",
          "type": "address"
        },
        {
          "indexed": false,
          "internalType": "uint256",
          "name": "tokenId",
          "type": "uint256"
        },
        {
          "indexed": true,
          "internalType": "address",
          "name": "seller",
          "type": "address"
        }
      ],
      "name": "Offered",
      "type": "event"
    },
    {
      "inputs": [],
      "name": "_owner",
      "outputs": [
        {
          "internalType": "address",
          "name": "",
          "type": "address"
        }
      ],
      "stateMutability": "view",
      "type": "function"
    },
    {
      "inputs": [
        {
          "internalType": "address",
          "name": "_to",
          "type": "address"
        }
      ],
      "name": "donation",
      "outputs": [],
      "stateMutability": "payable",
      "type": "function"
    },
    {
      "inputs": [],
      "name": "getItemCount",
      "outputs": [],
      "stateMutability": "nonpayable",
      "type": "function"
    },
    {
      "inputs": [],
      "name": "itemCount",
      "outputs": [
        {
          "internalType": "uint256",
          "name": "",
          "type": "uint256"
        }
      ],
      "stateMutability": "view",
      "type": "function"
    },
    {
      "inputs": [
        {
          "internalType": "uint256",
          "name": "",
          "type": "uint256"
        }
      ],
      "name": "items",
      "outputs": [
        {
          "internalType": "uint256",
          "name": "itemCount",
          "type": "uint256"
        },
        {
          "internalType": "contract IERC721",
          "name": "nft",
          "type": "address"
        },
        {
          "internalType": "uint256",
          "name": "tokenId",
          "type": "uint256"
        },
        {
          "internalType": "address payable",
          "name": "seller",
          "type": "address"
        },
        {
          "internalType": "bool",
          "name": "sold",
          "type": "bool"
        }
      ],
      "stateMutability": "view",
      "type": "function"
    },
    {
      "inputs": [
        {
          "internalType": "contract IERC721",
          "name": "_nft",
          "type": "address"
        },
        {
          "internalType": "uint256",
          "name": "_tokenId",
          "type": "uint256"
        }
      ],
      "name": "makeItem",
      "outputs": [],
      "stateMutability": "nonpayable",
      "type": "function"
    },
    {
      "inputs": [
        {
          "internalType": "uint256",
          "name": "_tokenId",
          "type": "uint256"
        }
      ],
      "name": "purchaseItem",
      "outputs": [],
      "stateMutability": "payable",
      "type": "function"
    }
  ],
  "bytecode": "0x6080604052600060015534801561001557600080fd5b50600160008190555033600260006101000a81548173ffffffffffffffffffffffffffffffffffffffff021916908373ffffffffffffffffffffffffffffffffffffffff160217905550610d808061006e6000396000f3fe6080604052600436106100705760003560e01c8063b2bdfa7b1161004e578063b2bdfa7b146100e0578063bfb231d21461010b578063d38ea5bf1461014c578063f457ee5a1461016857610070565b80631a1beae2146100755780636bfb0d011461009e5780637749cf23146100c9575b600080fd5b34801561008157600080fd5b5061009c600480360381019061009791906108cc565b610184565b005b3480156100aa57600080fd5b506100b36103fa565b6040516100c09190610ada565b60405180910390f35b3480156100d557600080fd5b506100de610400565b005b3480156100ec57600080fd5b506100f5610431565b6040516101029190610a08565b60405180910390f35b34801561011757600080fd5b50610132600480360381019061012d9190610908565b610457565b604051610143959493929190610af5565b60405180910390f35b61016660048036038101906101619190610908565b6104da565b005b610182600480360381019061017d91906108a3565b6107d1565b005b600260005414156101ca576040517f08c379a00000000000000000000000000000000000000000000000000000000081526004016101c190610aba565b60405180910390fd5b6002600081905550600160008154809291906101e590610be9565b91905055508173ffffffffffffffffffffffffffffffffffffffff166323b872dd3330846040518463ffffffff1660e01b815260040161022793929190610a23565b600060405180830381600087803b15801561024157600080fd5b505af1158015610255573d6000803e3d6000fd5b505050506040518060a0016040528060015481526020018373ffffffffffffffffffffffffffffffffffffffff1681526020018281526020013373ffffffffffffffffffffffffffffffffffffffff16815260200160001515815250600360008381526020019081526020016000206000820151816000015560208201518160010160006101000a81548173ffffffffffffffffffffffffffffffffffffffff021916908373ffffffffffffffffffffffffffffffffffffffff1602179055506040820151816002015560608201518160030160006101000a81548173ffffffffffffffffffffffffffffffffffffffff021916908373ffffffffffffffffffffffffffffffffffffffff16021790555060808201518160030160146101000a81548160ff0219169083151502179055509050503373ffffffffffffffffffffffffffffffffffffffff168273ffffffffffffffffffffffffffffffffffffffff167f08ef40df9ffeaa6a0cf8889c3bdc49150c3ea80337cd80533d6d439e8a48c595836040516103e69190610ada565b60405180910390a360016000819055505050565b60015481565b6001547f0a067494ab5e916c63bc3835a1868a9e04322641c43c2d4a3cdf9d78e33cb61360405160405180910390a2565b600260009054906101000a900473ffffffffffffffffffffffffffffffffffffffff1681565b60036020528060005260406000206000915090508060000154908060010160009054906101000a900473ffffffffffffffffffffffffffffffffffffffff16908060020154908060030160009054906101000a900473ffffffffffffffffffffffffffffffffffffffff16908060030160149054906101000a900460ff16905085565b60026000541415610520576040517f08c379a000000000000000000000000000000000000000000000000000000000815260040161051790610aba565b60405180910390fd5b600260008190555060006003600083815260200190815260200160002090508060030160149054906101000a900460ff1615610591576040517f08c379a000000000000000000000000000000000000000000000000000000000815260040161058890610a5a565b60405180910390fd5b641f05b90e003410156105d9576040517f08c379a00000000000000000000000000000000000000000000000000000000081526004016105d090610a7a565b60405180910390fd5b8060030160009054906101000a900473ffffffffffffffffffffffffffffffffffffffff1673ffffffffffffffffffffffffffffffffffffffff166108fc641f05b90e009081150290604051600060405180830381858888f19350505050158015610648573d6000803e3d6000fd5b5060018160030160146101000a81548160ff0219169083151502179055508060010160009054906101000a900473ffffffffffffffffffffffffffffffffffffffff1673ffffffffffffffffffffffffffffffffffffffff166323b872dd303384600201546040518463ffffffff1660e01b81526004016106cb93929190610a23565b600060405180830381600087803b1580156106e557600080fd5b505af11580156106f9573d6000803e3d6000fd5b505050503373ffffffffffffffffffffffffffffffffffffffff168160030160009054906101000a900473ffffffffffffffffffffffffffffffffffffffff1673ffffffffffffffffffffffffffffffffffffffff168260010160009054906101000a900473ffffffffffffffffffffffffffffffffffffffff1673ffffffffffffffffffffffffffffffffffffffff167fb57c3e8f5c69466a926940bc355e6b584466de843aee8e6e3276c5823fead86c84600201546040516107bd9190610ada565b60405180910390a450600160008190555050565b60003411610814576040517f08c379a000000000000000000000000000000000000000000000000000000000815260040161080b90610a9a565b60405180910390fd5b60008190508073ffffffffffffffffffffffffffffffffffffffff166108fc349081150290604051600060405180830381858888f1935050505015801561085f573d6000803e3d6000fd5b505050565b60008135905061087381610d05565b92915050565b60008135905061088881610d1c565b92915050565b60008135905061089d81610d33565b92915050565b6000602082840312156108b557600080fd5b60006108c384828501610864565b91505092915050565b600080604083850312156108df57600080fd5b60006108ed85828601610879565b92505060206108fe8582860161088e565b9150509250929050565b60006020828403121561091a57600080fd5b60006109288482850161088e565b91505092915050565b61093a81610b6b565b82525050565b61094981610b59565b82525050565b61095881610b7d565b82525050565b61096781610bc5565b82525050565b600061097a601183610b48565b915061098582610c61565b602082019050919050565b600061099d601283610b48565b91506109a882610c8a565b602082019050919050565b60006109c0601b83610b48565b91506109cb82610cb3565b602082019050919050565b60006109e3601f83610b48565b91506109ee82610cdc565b602082019050919050565b610a0281610bbb565b82525050565b6000602082019050610a1d6000830184610940565b92915050565b6000606082019050610a386000830186610940565b610a456020830185610940565b610a5260408301846109f9565b949350505050565b60006020820190508181036000830152610a738161096d565b9050919050565b60006020820190508181036000830152610a9381610990565b9050919050565b60006020820190508181036000830152610ab3816109b3565b9050919050565b60006020820190508181036000830152610ad3816109d6565b9050919050565b6000602082019050610aef60008301846109f9565b92915050565b600060a082019050610b0a60008301886109f9565b610b17602083018761095e565b610b2460408301866109f9565b610b316060830185610931565b610b3e608083018461094f565b9695505050505050565b600082825260208201905092915050565b6000610b6482610b9b565b9050919050565b6000610b7682610b9b565b9050919050565b60008115159050919050565b6000610b9482610b59565b9050919050565b600073ffffffffffffffffffffffffffffffffffffffff82169050919050565b6000819050919050565b6000610bd082610bd7565b9050919050565b6000610be282610b9b565b9050919050565b6000610bf482610bbb565b91507fffffffffffffffffffffffffffffffffffffffffffffffffffffffffffffffff821415610c2757610c26610c32565b5b600182019050919050565b7f4e487b7100000000000000000000000000000000000000000000000000000000600052601160045260246000fd5b7f6974656d20616c726561647920736f6c64000000000000000000000000000000600082015250565b7f696e73756666696369656e742076616c75650000000000000000000000000000600082015250565b7f706c6561736520656e74657220612076616c696420616d6f756e740000000000600082015250565b7f5265656e7472616e637947756172643a207265656e7472616e742063616c6c00600082015250565b610d0e81610b59565b8114610d1957600080fd5b50565b610d2581610b89565b8114610d3057600080fd5b50565b610d3c81610bbb565b8114610d4757600080fd5b5056fea26469706673582212202a5d002964e8e912f9932a1bc936685de379557a85a80248bcb52a7db0ff2a3964736f6c63430008040033",
  "linkReferences": {},
  "deployedLinkReferences": {}
}