{
  "_format": "hh-sol-artifact-1",
  "contractName": "NFT",
  "sourceName": "contracts/NFT.sol",
  "abi": [
    {
      "inputs": [
        {
          "internalType": "string",
          "name": "name",
          "type": "string"
        },
        {
          "internalType": "string",
          "name": "symbol",
          "type": "string"
        }
      ],
      "stateMutability": "nonpayable",
      "type": "constructor"
    },
    {
      "anonymous": false,
      "inputs": [
        {
          "indexed": true,
          "internalType": "address",
          "name": "owner",
          "type": "address"
        },
        {
          "indexed": true,
          "internalType": "address",
          "name": "approved",
          "type": "address"
        },
        {
          "indexed": true,
          "internalType": "uint256",
          "name": "tokenId",
          "type": "uint256"
        }
      ],
      "name": "Approval",
      "type": "event"
    },
    {
      "anonymous": false,
      "inputs": [
        {
          "indexed": true,
          "internalType": "address",
          "name": "owner",
          "type": "address"
        },
        {
          "indexed": true,
          "internalType": "address",
          "name": "operator",
          "type": "address"
        },
        {
          "indexed": false,
          "internalType": "bool",
          "name": "approved",
          "type": "bool"
        }
      ],
      "name": "ApprovalForAll",
      "type": "event"
    },
    {
      "anonymous": false,
      "inputs": [
        {
          "indexed": true,
          "internalType": "address",
          "name": "from",
          "type": "address"
        },
        {
          "indexed": true,
          "internalType": "address",
          "name": "to",
          "type": "address"
        },
        {
          "indexed": true,
          "internalType": "uint256",
          "name": "tokenId",
          "type": "uint256"
        }
      ],
      "name": "Transfer",
      "type": "event"
    },
    {
      "inputs": [
        {
          "internalType": "address",
          "name": "to",
          "type": "address"
        },
        {
          "internalType": "uint256",
          "name": "tokenId",
          "type": "uint256"
        }
      ],
      "name": "approve",
      "outputs": [],
      "stateMutability": "nonpayable",
      "type": "function"
    },
    {
      "inputs": [
        {
          "internalType": "address",
          "name": "owner",
          "type": "address"
        }
      ],
      "name": "balanceOf",
      "outputs": [
        {
          "internalType": "uint256",
          "name": "",
          "type": "uint256"
        }
      ],
      "stateMutability": "view",
      "type": "function"
    },
    {
      "inputs": [
        {
          "internalType": "uint256",
          "name": "tokenId",
          "type": "uint256"
        }
      ],
      "name": "getApproved",
      "outputs": [
        {
          "internalType": "address",
          "name": "",
          "type": "address"
        }
      ],
      "stateMutability": "view",
      "type": "function"
    },
    {
      "inputs": [
        {
          "internalType": "address",
          "name": "owner",
          "type": "address"
        },
        {
          "internalType": "address",
          "name": "operator",
          "type": "address"
        }
      ],
      "name": "isApprovedForAll",
      "outputs": [
        {
          "internalType": "bool",
          "name": "",
          "type": "bool"
        }
      ],
      "stateMutability": "view",
      "type": "function"
    },
    {
      "inputs": [
        {
          "internalType": "string",
          "name": "_tokenURI",
          "type": "string"
        }
      ],
      "name": "mint",
      "outputs": [
        {
          "internalType": "uint256",
          "name": "newTokenId",
          "type": "uint256"
        }
      ],
      "stateMutability": "nonpayable",
      "type": "function"
    },
    {
      "inputs": [],
      "name": "name",
      "outputs": [
        {
          "internalType": "string",
          "name": "",
          "type": "string"
        }
      ],
      "stateMutability": "view",
      "type": "function"
    },
    {
      "inputs": [],
      "name": "organisation",
      "outputs": [
        {
          "internalType": "address",
          "name": "",
          "type": "address"
        }
      ],
      "stateMutability": "view",
      "type": "function"
    },
    {
      "inputs": [
        {
          "internalType": "uint256",
          "name": "tokenId",
          "type": "uint256"
        }
      ],
      "name": "ownerOf",
      "outputs": [
        {
          "internalType": "address",
          "name": "",
          "type": "address"
        }
      ],
      "stateMutability": "view",
      "type": "function"
    },
    {
      "inputs": [
        {
          "internalType": "address",
          "name": "from",
          "type": "address"
        },
        {
          "internalType": "address",
          "name": "to",
          "type": "address"
        },
        {
          "internalType": "uint256",
          "name": "tokenId",
          "type": "uint256"
        }
      ],
      "name": "safeTransferFrom",
      "outputs": [],
      "stateMutability": "nonpayable",
      "type": "function"
    },
    {
      "inputs": [
        {
          "internalType": "address",
          "name": "from",
          "type": "address"
        },
        {
          "internalType": "address",
          "name": "to",
          "type": "address"
        },
        {
          "internalType": "uint256",
          "name": "tokenId",
          "type": "uint256"
        },
        {
          "internalType": "bytes",
          "name": "data",
          "type": "bytes"
        }
      ],
      "name": "safeTransferFrom",
      "outputs": [],
      "stateMutability": "nonpayable",
      "type": "function"
    },
    {
      "inputs": [
        {
          "internalType": "address",
          "name": "operator",
          "type": "address"
        },
        {
          "internalType": "bool",
          "name": "approved",
          "type": "bool"
        }
      ],
      "name": "setApprovalForAll",
      "outputs": [],
      "stateMutability": "nonpayable",
      "type": "function"
    },
    {
      "inputs": [
        {
          "internalType": "bytes4",
          "name": "interfaceId",
          "type": "bytes4"
        }
      ],
      "name": "supportsInterface",
      "outputs": [
        {
          "internalType": "bool",
          "name": "",
          "type": "bool"
        }
      ],
      "stateMutability": "view",
      "type": "function"
    },
    {
      "inputs": [],
      "name": "symbol",
      "outputs": [
        {
          "internalType": "string",
          "name": "",
          "type": "string"
        }
      ],
      "stateMutability": "view",
      "type": "function"
    },
    {
      "inputs": [],
      "name": "tokenCount",
      "outputs": [
        {
          "internalType": "uint256",
          "name": "",
          "type": "uint256"
        }
      ],
      "stateMutability": "view",
      "type": "function"
    },
    {
      "inputs": [
        {
          "internalType": "uint256",
          "name": "tokenId",
          "type": "uint256"
        }
      ],
      "name": "tokenURI",
      "outputs": [
        {
          "internalType": "string",
          "name": "",
          "type": "string"
        }
      ],
      "stateMutability": "view",
      "type": "function"
    },
    {
      "inputs": [
        {
          "internalType": "address",
          "name": "from",
          "type": "address"
        },
        {
          "internalType": "address",
          "name": "to",
          "type": "address"
        },
        {
          "internalType": "uint256",
          "name": "tokenId",
          "type": "uint256"
        }
      ],
      "name": "transferFrom",
      "outputs": [],
      "stateMutability": "nonpayable",
      "type": "function"
    }
  ],
  "bytecode": "0x608060405260006008553480156200001657600080fd5b5060405162002d3638038062002d3683398181016040528101906200003c9190620001dd565b8181816000908051906020019062000056929190620000bb565b5080600190805190602001906200006f929190620000bb565b50505033600960006101000a81548173ffffffffffffffffffffffffffffffffffffffff021916908373ffffffffffffffffffffffffffffffffffffffff1602179055505050620003c0565b828054620000c990620002e5565b90600052602060002090601f016020900481019282620000ed576000855562000139565b82601f106200010857805160ff191683800117855562000139565b8280016001018555821562000139579182015b82811115620001385782518255916020019190600101906200011b565b5b5090506200014891906200014c565b5090565b5b80821115620001675760008160009055506001016200014d565b5090565b6000620001826200017c8462000279565b62000250565b9050828152602081018484840111156200019b57600080fd5b620001a8848285620002af565b509392505050565b600082601f830112620001c257600080fd5b8151620001d48482602086016200016b565b91505092915050565b60008060408385031215620001f157600080fd5b600083015167ffffffffffffffff8111156200020c57600080fd5b6200021a85828601620001b0565b925050602083015167ffffffffffffffff8111156200023857600080fd5b6200024685828601620001b0565b9150509250929050565b60006200025c6200026f565b90506200026a82826200031b565b919050565b6000604051905090565b600067ffffffffffffffff82111562000297576200029662000380565b5b620002a282620003af565b9050602081019050919050565b60005b83811015620002cf578082015181840152602081019050620002b2565b83811115620002df576000848401525b50505050565b60006002820490506001821680620002fe57607f821691505b6020821081141562000315576200031462000351565b5b50919050565b6200032682620003af565b810181811067ffffffffffffffff8211171562000348576200034762000380565b5b80604052505050565b7f4e487b7100000000000000000000000000000000000000000000000000000000600052602260045260246000fd5b7f4e487b7100000000000000000000000000000000000000000000000000000000600052604160045260246000fd5b6000601f19601f8301169050919050565b61296680620003d06000396000f3fe608060405234801561001057600080fd5b50600436106101005760003560e01c806370a0823111610097578063b88d4fde11610066578063b88d4fde146102ad578063c87b56dd146102c9578063d85d3d27146102f9578063e985e9c51461032957610100565b806370a082311461022557806395d89b41146102555780639f181b5e14610273578063a22cb4651461029157610100565b806323b872dd116100d357806323b872dd1461019f57806342842e0e146101bb578063438b12d1146101d75780636352211e146101f557610100565b806301ffc9a71461010557806306fdde0314610135578063081812fc14610153578063095ea7b314610183575b600080fd5b61011f600480360381019061011a9190611c40565b610359565b60405161012c9190611ffb565b60405180910390f35b61013d61043b565b60405161014a9190612016565b60405180910390f35b61016d60048036038101906101689190611cd3565b6104cd565b60405161017a9190611f94565b60405180910390f35b61019d60048036038101906101989190611c04565b610513565b005b6101b960048036038101906101b49190611afe565b61062b565b005b6101d560048036038101906101d09190611afe565b61068b565b005b6101df6106ab565b6040516101ec9190611f94565b60405180910390f35b61020f600480360381019061020a9190611cd3565b6106d1565b60405161021c9190611f94565b60405180910390f35b61023f600480360381019061023a9190611a99565b610783565b60405161024c91906121b8565b60405180910390f35b61025d61083b565b60405161026a9190612016565b60405180910390f35b61027b6108cd565b60405161028891906121b8565b60405180910390f35b6102ab60048036038101906102a69190611bc8565b6108d3565b005b6102c760048036038101906102c29190611b4d565b6108e9565b005b6102e360048036038101906102de9190611cd3565b61094b565b6040516102f09190612016565b60405180910390f35b610313600480360381019061030e9190611c92565b610a5e565b60405161032091906121b8565b60405180910390f35b610343600480360381019061033e9190611ac2565b610aa7565b6040516103509190611ffb565b60405180910390f35b60007f80ac58cd000000000000000000000000000000000000000000000000000000007bffffffffffffffffffffffffffffffffffffffffffffffffffffffff1916827bffffffffffffffffffffffffffffffffffffffffffffffffffffffff1916148061042457507f5b5e139f000000000000000000000000000000000000000000000000000000007bffffffffffffffffffffffffffffffffffffffffffffffffffffffff1916827bffffffffffffffffffffffffffffffffffffffffffffffffffffffff1916145b80610434575061043382610b3b565b5b9050919050565b60606000805461044a9061240e565b80601f01602080910402602001604051908101604052809291908181526020018280546104769061240e565b80156104c35780601f10610498576101008083540402835291602001916104c3565b820191906000526020600020905b8154815290600101906020018083116104a657829003601f168201915b5050505050905090565b60006104d882610ba5565b6004600083815260200190815260200160002060009054906101000a900473ffffffffffffffffffffffffffffffffffffffff169050919050565b600061051e826106d1565b90508073ffffffffffffffffffffffffffffffffffffffff168373ffffffffffffffffffffffffffffffffffffffff16141561058f576040517f08c379a000000000000000000000000000000000000000000000000000000000815260040161058690612178565b60405180910390fd5b8073ffffffffffffffffffffffffffffffffffffffff166105ae610bf0565b73ffffffffffffffffffffffffffffffffffffffff1614806105dd57506105dc816105d7610bf0565b610aa7565b5b61061c576040517f08c379a000000000000000000000000000000000000000000000000000000000815260040161061390612118565b60405180910390fd5b6106268383610bf8565b505050565b61063c610636610bf0565b82610cb1565b61067b576040517f08c379a000000000000000000000000000000000000000000000000000000000815260040161067290612198565b60405180910390fd5b610686838383610d46565b505050565b6106a6838383604051806020016040528060008152506108e9565b505050565b600960009054906101000a900473ffffffffffffffffffffffffffffffffffffffff1681565b6000806002600084815260200190815260200160002060009054906101000a900473ffffffffffffffffffffffffffffffffffffffff169050600073ffffffffffffffffffffffffffffffffffffffff168173ffffffffffffffffffffffffffffffffffffffff16141561077a576040517f08c379a000000000000000000000000000000000000000000000000000000000815260040161077190612158565b60405180910390fd5b80915050919050565b60008073ffffffffffffffffffffffffffffffffffffffff168273ffffffffffffffffffffffffffffffffffffffff1614156107f4576040517f08c379a00000000000000000000000000000000000000000000000000000000081526004016107eb906120d8565b60405180910390fd5b600360008373ffffffffffffffffffffffffffffffffffffffff1673ffffffffffffffffffffffffffffffffffffffff168152602001908152602001600020549050919050565b60606001805461084a9061240e565b80601f01602080910402602001604051908101604052809291908181526020018280546108769061240e565b80156108c35780601f10610898576101008083540402835291602001916108c3565b820191906000526020600020905b8154815290600101906020018083116108a657829003601f168201915b5050505050905090565b60085481565b6108e56108de610bf0565b8383610fad565b5050565b6108fa6108f4610bf0565b83610cb1565b610939576040517f08c379a000000000000000000000000000000000000000000000000000000000815260040161093090612198565b60405180910390fd5b6109458484848461111a565b50505050565b606061095682610ba5565b60006006600084815260200190815260200160002080546109769061240e565b80601f01602080910402602001604051908101604052809291908181526020018280546109a29061240e565b80156109ef5780601f106109c4576101008083540402835291602001916109ef565b820191906000526020600020905b8154815290600101906020018083116109d257829003601f168201915b505050505090506000610a00611176565b9050600081511415610a16578192505050610a59565b600082511115610a4b578082604051602001610a33929190611f70565b60405160208183030381529060405292505050610a59565b610a548461118d565b925050505b919050565b6000610a6a60076111f5565b905060086000815480929190610a7f90612471565b9190505550610a8e3382611203565b610a986007611221565b610aa28183611237565b919050565b6000600560008473ffffffffffffffffffffffffffffffffffffffff1673ffffffffffffffffffffffffffffffffffffffff16815260200190815260200160002060008373ffffffffffffffffffffffffffffffffffffffff1673ffffffffffffffffffffffffffffffffffffffff16815260200190815260200160002060009054906101000a900460ff16905092915050565b60007f01ffc9a7000000000000000000000000000000000000000000000000000000007bffffffffffffffffffffffffffffffffffffffffffffffffffffffff1916827bffffffffffffffffffffffffffffffffffffffffffffffffffffffff1916149050919050565b610bae816112ab565b610bed576040517f08c379a0000000000000000000000000000000000000000000000000000000008152600401610be490612158565b60405180910390fd5b50565b600033905090565b816004600083815260200190815260200160002060006101000a81548173ffffffffffffffffffffffffffffffffffffffff021916908373ffffffffffffffffffffffffffffffffffffffff160217905550808273ffffffffffffffffffffffffffffffffffffffff16610c6b836106d1565b73ffffffffffffffffffffffffffffffffffffffff167f8c5be1e5ebec7d5bd14f71427d1e84f3dd0314c0f7b2291e5b200ac8c7c3b92560405160405180910390a45050565b600080610cbd836106d1565b90508073ffffffffffffffffffffffffffffffffffffffff168473ffffffffffffffffffffffffffffffffffffffff161480610cff5750610cfe8185610aa7565b5b80610d3d57508373ffffffffffffffffffffffffffffffffffffffff16610d25846104cd565b73ffffffffffffffffffffffffffffffffffffffff16145b91505092915050565b8273ffffffffffffffffffffffffffffffffffffffff16610d66826106d1565b73ffffffffffffffffffffffffffffffffffffffff1614610dbc576040517f08c379a0000000000000000000000000000000000000000000000000000000008152600401610db390612058565b60405180910390fd5b600073ffffffffffffffffffffffffffffffffffffffff168273ffffffffffffffffffffffffffffffffffffffff161415610e2c576040517f08c379a0000000000000000000000000000000000000000000000000000000008152600401610e2390612098565b60405180910390fd5b610e37838383611317565b610e42600082610bf8565b6001600360008573ffffffffffffffffffffffffffffffffffffffff1673ffffffffffffffffffffffffffffffffffffffff1681526020019081526020016000206000828254610e929190612324565b925050819055506001600360008473ffffffffffffffffffffffffffffffffffffffff1673ffffffffffffffffffffffffffffffffffffffff1681526020019081526020016000206000828254610ee9919061229d565b92505081905550816002600083815260200190815260200160002060006101000a81548173ffffffffffffffffffffffffffffffffffffffff021916908373ffffffffffffffffffffffffffffffffffffffff160217905550808273ffffffffffffffffffffffffffffffffffffffff168473ffffffffffffffffffffffffffffffffffffffff167fddf252ad1be2c89b69c2b068fc378daa952ba7f163c4a11628f55a4df523b3ef60405160405180910390a4610fa883838361131c565b505050565b8173ffffffffffffffffffffffffffffffffffffffff168373ffffffffffffffffffffffffffffffffffffffff16141561101c576040517f08c379a0000000000000000000000000000000000000000000000000000000008152600401611013906120b8565b60405180910390fd5b80600560008573ffffffffffffffffffffffffffffffffffffffff1673ffffffffffffffffffffffffffffffffffffffff16815260200190815260200160002060008473ffffffffffffffffffffffffffffffffffffffff1673ffffffffffffffffffffffffffffffffffffffff16815260200190815260200160002060006101000a81548160ff0219169083151502179055508173ffffffffffffffffffffffffffffffffffffffff168373ffffffffffffffffffffffffffffffffffffffff167f17307eab39ab6107e8899845ad3d59bd9653f200f220920489ca2b5937696c318360405161110d9190611ffb565b60405180910390a3505050565b611125848484610d46565b61113184848484611321565b611170576040517f08c379a000000000000000000000000000000000000000000000000000000000815260040161116790612038565b60405180910390fd5b50505050565b606060405180602001604052806000815250905090565b606061119882610ba5565b60006111a2611176565b905060008151116111c257604051806020016040528060008152506111ed565b806111cc846114b8565b6040516020016111dd929190611f70565b6040516020818303038152906040525b915050919050565b600081600001549050919050565b61121d828260405180602001604052806000815250611665565b5050565b6001816000016000828254019250508190555050565b611240826112ab565b61127f576040517f08c379a0000000000000000000000000000000000000000000000000000000008152600401611276906120f8565b60405180910390fd5b806006600084815260200190815260200160002090805190602001906112a69291906118bd565b505050565b60008073ffffffffffffffffffffffffffffffffffffffff166002600084815260200190815260200160002060009054906101000a900473ffffffffffffffffffffffffffffffffffffffff1673ffffffffffffffffffffffffffffffffffffffff1614159050919050565b505050565b505050565b60006113428473ffffffffffffffffffffffffffffffffffffffff166116c0565b156114ab578373ffffffffffffffffffffffffffffffffffffffff1663150b7a0261136b610bf0565b8786866040518563ffffffff1660e01b815260040161138d9493929190611faf565b602060405180830381600087803b1580156113a757600080fd5b505af19250505080156113d857506040513d601f19601f820116820180604052508101906113d59190611c69565b60015b61145b573d8060008114611408576040519150601f19603f3d011682016040523d82523d6000602084013e61140d565b606091505b50600081511415611453576040517f08c379a000000000000000000000000000000000000000000000000000000000815260040161144a90612038565b60405180910390fd5b805181602001fd5b63150b7a0260e01b7bffffffffffffffffffffffffffffffffffffffffffffffffffffffff1916817bffffffffffffffffffffffffffffffffffffffffffffffffffffffff1916149150506114b0565b600190505b949350505050565b60606000821415611500576040518060400160405280600181526020017f30000000000000000000000000000000000000000000000000000000000000008152509050611660565b600082905060005b6000821461153257808061151b90612471565b915050600a8261152b91906122f3565b9150611508565b60008167ffffffffffffffff811115611574577f4e487b7100000000000000000000000000000000000000000000000000000000600052604160045260246000fd5b6040519080825280601f01601f1916602001820160405280156115a65781602001600182028036833780820191505090505b5090505b60008514611659576001826115bf9190612324565b9150600a856115ce91906124ba565b60306115da919061229d565b60f81b818381518110611616577f4e487b7100000000000000000000000000000000000000000000000000000000600052603260045260246000fd5b60200101907effffffffffffffffffffffffffffffffffffffffffffffffffffffffffffff1916908160001a905350600a8561165291906122f3565b94506115aa565b8093505050505b919050565b61166f83836116e3565b61167c6000848484611321565b6116bb576040517f08c379a00000000000000000000000000000000000000000000000000000000081526004016116b290612038565b60405180910390fd5b505050565b6000808273ffffffffffffffffffffffffffffffffffffffff163b119050919050565b600073ffffffffffffffffffffffffffffffffffffffff168273ffffffffffffffffffffffffffffffffffffffff161415611753576040517f08c379a000000000000000000000000000000000000000000000000000000000815260040161174a90612138565b60405180910390fd5b61175c816112ab565b1561179c576040517f08c379a000000000000000000000000000000000000000000000000000000000815260040161179390612078565b60405180910390fd5b6117a860008383611317565b6001600360008473ffffffffffffffffffffffffffffffffffffffff1673ffffffffffffffffffffffffffffffffffffffff16815260200190815260200160002060008282546117f8919061229d565b92505081905550816002600083815260200190815260200160002060006101000a81548173ffffffffffffffffffffffffffffffffffffffff021916908373ffffffffffffffffffffffffffffffffffffffff160217905550808273ffffffffffffffffffffffffffffffffffffffff16600073ffffffffffffffffffffffffffffffffffffffff167fddf252ad1be2c89b69c2b068fc378daa952ba7f163c4a11628f55a4df523b3ef60405160405180910390a46118b96000838361131c565b5050565b8280546118c99061240e565b90600052602060002090601f0160209004810192826118eb5760008555611932565b82601f1061190457805160ff1916838001178555611932565b82800160010185558215611932579182015b82811115611931578251825591602001919060010190611916565b5b50905061193f9190611943565b5090565b5b8082111561195c576000816000905550600101611944565b5090565b600061197361196e846121f8565b6121d3565b90508281526020810184848401111561198b57600080fd5b6119968482856123cc565b509392505050565b60006119b16119ac84612229565b6121d3565b9050828152602081018484840111156119c957600080fd5b6119d48482856123cc565b509392505050565b6000813590506119eb816128d4565b92915050565b600081359050611a00816128eb565b92915050565b600081359050611a1581612902565b92915050565b600081519050611a2a81612902565b92915050565b600082601f830112611a4157600080fd5b8135611a51848260208601611960565b91505092915050565b600082601f830112611a6b57600080fd5b8135611a7b84826020860161199e565b91505092915050565b600081359050611a9381612919565b92915050565b600060208284031215611aab57600080fd5b6000611ab9848285016119dc565b91505092915050565b60008060408385031215611ad557600080fd5b6000611ae3858286016119dc565b9250506020611af4858286016119dc565b9150509250929050565b600080600060608486031215611b1357600080fd5b6000611b21868287016119dc565b9350506020611b32868287016119dc565b9250506040611b4386828701611a84565b9150509250925092565b60008060008060808587031215611b6357600080fd5b6000611b71878288016119dc565b9450506020611b82878288016119dc565b9350506040611b9387828801611a84565b925050606085013567ffffffffffffffff811115611bb057600080fd5b611bbc87828801611a30565b91505092959194509250565b60008060408385031215611bdb57600080fd5b6000611be9858286016119dc565b9250506020611bfa858286016119f1565b9150509250929050565b60008060408385031215611c1757600080fd5b6000611c25858286016119dc565b9250506020611c3685828601611a84565b9150509250929050565b600060208284031215611c5257600080fd5b6000611c6084828501611a06565b91505092915050565b600060208284031215611c7b57600080fd5b6000611c8984828501611a1b565b91505092915050565b600060208284031215611ca457600080fd5b600082013567ffffffffffffffff811115611cbe57600080fd5b611cca84828501611a5a565b91505092915050565b600060208284031215611ce557600080fd5b6000611cf384828501611a84565b91505092915050565b611d0581612358565b82525050565b611d148161236a565b82525050565b6000611d258261225a565b611d2f8185612270565b9350611d3f8185602086016123db565b611d48816125a7565b840191505092915050565b6000611d5e82612265565b611d688185612281565b9350611d788185602086016123db565b611d81816125a7565b840191505092915050565b6000611d9782612265565b611da18185612292565b9350611db18185602086016123db565b80840191505092915050565b6000611dca603283612281565b9150611dd5826125b8565b604082019050919050565b6000611ded602583612281565b9150611df882612607565b604082019050919050565b6000611e10601c83612281565b9150611e1b82612656565b602082019050919050565b6000611e33602483612281565b9150611e3e8261267f565b604082019050919050565b6000611e56601983612281565b9150611e61826126ce565b602082019050919050565b6000611e79602983612281565b9150611e84826126f7565b604082019050919050565b6000611e9c602e83612281565b9150611ea782612746565b604082019050919050565b6000611ebf603e83612281565b9150611eca82612795565b604082019050919050565b6000611ee2602083612281565b9150611eed826127e4565b602082019050919050565b6000611f05601883612281565b9150611f108261280d565b602082019050919050565b6000611f28602183612281565b9150611f3382612836565b604082019050919050565b6000611f4b602e83612281565b9150611f5682612885565b604082019050919050565b611f6a816123c2565b82525050565b6000611f7c8285611d8c565b9150611f888284611d8c565b91508190509392505050565b6000602082019050611fa96000830184611cfc565b92915050565b6000608082019050611fc46000830187611cfc565b611fd16020830186611cfc565b611fde6040830185611f61565b8181036060830152611ff08184611d1a565b905095945050505050565b60006020820190506120106000830184611d0b565b92915050565b600060208201905081810360008301526120308184611d53565b905092915050565b6000602082019050818103600083015261205181611dbd565b9050919050565b6000602082019050818103600083015261207181611de0565b9050919050565b6000602082019050818103600083015261209181611e03565b9050919050565b600060208201905081810360008301526120b181611e26565b9050919050565b600060208201905081810360008301526120d181611e49565b9050919050565b600060208201905081810360008301526120f181611e6c565b9050919050565b6000602082019050818103600083015261211181611e8f565b9050919050565b6000602082019050818103600083015261213181611eb2565b9050919050565b6000602082019050818103600083015261215181611ed5565b9050919050565b6000602082019050818103600083015261217181611ef8565b9050919050565b6000602082019050818103600083015261219181611f1b565b9050919050565b600060208201905081810360008301526121b181611f3e565b9050919050565b60006020820190506121cd6000830184611f61565b92915050565b60006121dd6121ee565b90506121e98282612440565b919050565b6000604051905090565b600067ffffffffffffffff82111561221357612212612578565b5b61221c826125a7565b9050602081019050919050565b600067ffffffffffffffff82111561224457612243612578565b5b61224d826125a7565b9050602081019050919050565b600081519050919050565b600081519050919050565b600082825260208201905092915050565b600082825260208201905092915050565b600081905092915050565b60006122a8826123c2565b91506122b3836123c2565b9250827fffffffffffffffffffffffffffffffffffffffffffffffffffffffffffffffff038211156122e8576122e76124eb565b5b828201905092915050565b60006122fe826123c2565b9150612309836123c2565b9250826123195761231861251a565b5b828204905092915050565b600061232f826123c2565b915061233a836123c2565b92508282101561234d5761234c6124eb565b5b828203905092915050565b6000612363826123a2565b9050919050565b60008115159050919050565b60007fffffffff0000000000000000000000000000000000000000000000000000000082169050919050565b600073ffffffffffffffffffffffffffffffffffffffff82169050919050565b6000819050919050565b82818337600083830152505050565b60005b838110156123f95780820151818401526020810190506123de565b83811115612408576000848401525b50505050565b6000600282049050600182168061242657607f821691505b6020821081141561243a57612439612549565b5b50919050565b612449826125a7565b810181811067ffffffffffffffff8211171561246857612467612578565b5b80604052505050565b600061247c826123c2565b91507fffffffffffffffffffffffffffffffffffffffffffffffffffffffffffffffff8214156124af576124ae6124eb565b5b600182019050919050565b60006124c5826123c2565b91506124d0836123c2565b9250826124e0576124df61251a565b5b828206905092915050565b7f4e487b7100000000000000000000000000000000000000000000000000000000600052601160045260246000fd5b7f4e487b7100000000000000000000000000000000000000000000000000000000600052601260045260246000fd5b7f4e487b7100000000000000000000000000000000000000000000000000000000600052602260045260246000fd5b7f4e487b7100000000000000000000000000000000000000000000000000000000600052604160045260246000fd5b6000601f19601f8301169050919050565b7f4552433732313a207472616e7366657220746f206e6f6e20455243373231526560008201527f63656976657220696d706c656d656e7465720000000000000000000000000000602082015250565b7f4552433732313a207472616e736665722066726f6d20696e636f72726563742060008201527f6f776e6572000000000000000000000000000000000000000000000000000000602082015250565b7f4552433732313a20746f6b656e20616c7265616479206d696e74656400000000600082015250565b7f4552433732313a207472616e7366657220746f20746865207a65726f2061646460008201527f7265737300000000000000000000000000000000000000000000000000000000602082015250565b7f4552433732313a20617070726f766520746f2063616c6c657200000000000000600082015250565b7f4552433732313a2061646472657373207a65726f206973206e6f74206120766160008201527f6c6964206f776e65720000000000000000000000000000000000000000000000602082015250565b7f45524337323155524953746f726167653a2055524920736574206f66206e6f6e60008201527f6578697374656e7420746f6b656e000000000000000000000000000000000000602082015250565b7f4552433732313a20617070726f76652063616c6c6572206973206e6f7420746f60008201527f6b656e206f776e6572206e6f7220617070726f76656420666f7220616c6c0000602082015250565b7f4552433732313a206d696e7420746f20746865207a65726f2061646472657373600082015250565b7f4552433732313a20696e76616c696420746f6b656e2049440000000000000000600082015250565b7f4552433732313a20617070726f76616c20746f2063757272656e74206f776e6560008201527f7200000000000000000000000000000000000000000000000000000000000000602082015250565b7f4552433732313a2063616c6c6572206973206e6f7420746f6b656e206f776e6560008201527f72206e6f7220617070726f766564000000000000000000000000000000000000602082015250565b6128dd81612358565b81146128e857600080fd5b50565b6128f48161236a565b81146128ff57600080fd5b50565b61290b81612376565b811461291657600080fd5b50565b612922816123c2565b811461292d57600080fd5b5056fea2646970667358221220cf17c04cc6a80ade88806baf0086c522138d4e7b0b0b4e3d79b04cca3628667664736f6c63430008040033",
  "linkReferences": {},
  "deployedLinkReferences": {}
}